:020000040000fa
:080000000002040000000000f2
:020000040000fa
:040008003c030000b5
:020000040000fa
:04000c003c030000b1
:020000040000fa
:040010003c030000ad
:020000040000fa
:040014003c030000a9
:020000040000fa
:040018003c030000a5
:020000040000fa
:04001c003c030000a1
:020000040000fa
:040020003c0300009d
:020000040000fa
:040024003c03000099
:020000040000fa
:040028003c03000095
:020000040000fa
:04002c003c03000091
:020000040000fa
:040030003c0300008d
:020000040000fa
:040034003c03000089
:020000040000fa
:040038003c03000085
:020000040000fa
:04003c003c03000081
:020000040000fa
:040040003c0300007d
:020000040000fa
:040044003c03000079
:020000040000fa
:0400480004030000ad
:020000040000fa
:04004c003c03000071
:020000040000fa
:040050003c0300006d
:020000040000fa
:040054003c03000069
:020000040000fa
:040058003c03000065
:020000040000fa
:04005c003c03000061
:020000040000fa
:040060003c0300005d
:020000040000fa
:040064003c03000059
:020000040000fa
:040068003c03000055
:020000040000fa
:04006c003c03000051
:020000040000fa
:040070003c0300004d
:020000040000fa
:040074003c03000049
:020000040000fa
:040078003c03000045
:020000040000fa
:04007c003c03000041
:020000040000fa
:040080003c0300003d
:020000040000fa
:040084003c03000039
:020000040000fa
:040088003c03000035
:020000040000fa
:04008c003c03000031
:020000040000fa
:040090003c0300002d
:020000040000fa
:040094003c03000029
:020000040000fa
:040098003c03000025
:020000040000fa
:04009c003c03000021
:020000040000fa
:0400a0003c0300001d
:020000040000fa
:0400a4003c03000019
:020000040000fa
:0400a8003c03000015
:020000040000fa
:0400ac003c03000011
:020000040000fa
:0400b0003c0300000d
:020000040000fa
:0400b4003c03000009
:020000040000fa
:0400b8003c03000005
:020000040000fa
:0400bc003c03000001
:020000040000fa
:0400c0003c030000fd
:020000040000fa
:0400c4003c030000f9
:020000040000fa
:0400c8003c030000f5
:020000040000fa
:0400cc003c030000f1
:020000040000fa
:0400d0003c030000ed
:020000040000fa
:0400d4003c030000e9
:020000040000fa
:0400d8003c030000e5
:020000040000fa
:0400dc003c030000e1
:020000040000fa
:0400e0003c030000dd
:020000040000fa
:0400e4003c030000d9
:020000040000fa
:0400e8003c030000d5
:020000040000fa
:0400ec003c030000d1
:020000040000fa
:0400f0003c030000cd
:020000040000fa
:0400f4003c030000c9
:020000040000fa
:0400f8003c030000c5
:020000040000fa
:0400fc003c030000c1
:020000040000fa
:040100003c030000bc
:020000040000fa
:040104003c030000b8
:020000040000fa
:040108003c030000b4
:020000040000fa
:04010c003c030000b0
:020000040000fa
:040110003c030000ac
:020000040000fa
:040114003c030000a8
:020000040000fa
:040118003c030000a4
:020000040000fa
:04011c003c030000a0
:020000040000fa
:040120003c0300009c
:020000040000fa
:040124003c03000098
:020000040000fa
:040128003c03000094
:020000040000fa
:04012c003c03000090
:020000040000fa
:040130003c0300008c
:020000040000fa
:040134003c03000088
:020000040000fa
:040138003c03000084
:020000040000fa
:04013c003c03000080
:020000040000fa
:040140003c0300007c
:020000040000fa
:040144003c03000078
:020000040000fa
:040148003c03000074
:020000040000fa
:04014c003c03000070
:020000040000fa
:040150003c0300006c
:020000040000fa
:040154003c03000068
:020000040000fa
:040158003c03000064
:020000040000fa
:04015c003c03000060
:020000040000fa
:040160003c0300005c
:020000040000fa
:040164003c03000058
:020000040000fa
:040168003c03000054
:020000040000fa
:04016c003c03000050
:020000040000fa
:040170003c0300004c
:020000040000fa
:040174003c03000048
:020000040000fa
:040178003c03000044
:020000040000fa
:04017c003c03000040
:020000040000fa
:040180003c0300003c
:020000040000fa
:040184003c03000038
:020000040000fa
:040188003c03000034
:020000040000fa
:04018c003c03000030
:020000040000fa
:040190003c0300002c
:020000040000fa
:040194003c03000028
:020000040000fa
:040198003c03000024
:020000040000fa
:04019c003c03000020
:020000040000fa
:0401a0003c0300001c
:020000040000fa
:0401a4003c03000018
:020000040000fa
:0401a8003c03000014
:020000040000fa
:0401ac003c03000010
:020000040000fa
:0401b0003c0300000c
:020000040000fa
:0401b4003c03000008
:020000040000fa
:0401b8003c03000004
:020000040000fa
:0401bc003c03000000
:020000040000fa
:0401c0003c030000fc
:020000040000fa
:0401c4003c030000f8
:020000040000fa
:0401c8003c030000f4
:020000040000fa
:0401cc003c030000f0
:020000040000fa
:0401d0003c030000ec
:020000040000fa
:0401d4003c030000e8
:020000040000fa
:0401d8003c030000e4
:020000040000fa
:0401dc003c030000e0
:020000040000fa
:0401e0003c030000dc
:020000040000fa
:0401e4003c030000d8
:020000040000fa
:0401e8003c030000d4
:020000040000fa
:0401ec003c030000d0
:020000040000fa
:0401f0003c030000cc
:020000040000fa
:0401f4003c030000c8
:020000040000fa
:0401f8003c030000c4
:020000040000fa
:0401fc003c030000c0
:020000040000fa
:040208003c030000b3
:020000040000fa
:04020c003c030000af
:020000040000fa
:040210003c030000ab
:020000040000fa
:040214003c030000a7
:020000040000fa
:040218003c030000a3
:020000040000fa
:04021c003c0300009f
:020000040000fa
:040220003c0300009b
:020000040000fa
:040224003c03000097
:020000040000fa
:040228003c03000093
:020000040000fa
:04022c003c0300008f
:020000040000fa
:040230003c0300008b
:020000040000fa
:040234003c03000087
:020000040000fa
:040238003c03000083
:020000040000fa
:04023c003c0300007f
:020000040000fa
:040240003c0300007b
:020000040000fa
:040244003c03000077
:020000040000fa
:0402480004030000ab
:020000040000fa
:04024c003c0300006f
:020000040000fa
:040250003c0300006b
:020000040000fa
:040254003c03000067
:020000040000fa
:040258003c03000063
:020000040000fa
:04025c003c0300005f
:020000040000fa
:040260003c0300005b
:020000040000fa
:040264003c03000057
:020000040000fa
:040268003c03000053
:020000040000fa
:04026c003c0300004f
:020000040000fa
:040270003c0300004b
:020000040000fa
:040274003c03000047
:020000040000fa
:040278003c03000043
:020000040000fa
:04027c003c0300003f
:020000040000fa
:040280003c0300003b
:020000040000fa
:040284003c03000037
:020000040000fa
:040288003c03000033
:020000040000fa
:04028c003c0300002f
:020000040000fa
:040290003c0300002b
:020000040000fa
:040294003c03000027
:020000040000fa
:040298003c03000023
:020000040000fa
:04029c003c0300001f
:020000040000fa
:0402a0003c0300001b
:020000040000fa
:0402a4003c03000017
:020000040000fa
:0402a8003c03000013
:020000040000fa
:0402ac003c0300000f
:020000040000fa
:0402b0003c0300000b
:020000040000fa
:0402b4003c03000007
:020000040000fa
:0402b8003c03000003
:020000040000fa
:0402bc003c030000ff
:020000040000fa
:0402c0003c030000fb
:020000040000fa
:0402c4003c030000f7
:020000040000fa
:0402c8003c030000f3
:020000040000fa
:0402cc003c030000ef
:020000040000fa
:0402d0003c030000eb
:020000040000fa
:0402d4003c030000e7
:020000040000fa
:0402d8003c030000e3
:020000040000fa
:0402dc003c030000df
:020000040000fa
:0402e0003c030000db
:020000040000fa
:0402e4003c030000d7
:020000040000fa
:0402e8003c030000d3
:020000040000fa
:0402ec003c030000cf
:020000040000fa
:0402f0003c030000cb
:020000040000fa
:0402f4003c030000c7
:020000040000fa
:0402f8003c030000c3
:020000040000fa
:0402fc003c030000bf
:020000040000fa
:040300003c030000ba
:020000040000fa
:040304003c030000b6
:020000040000fa
:040308003c030000b2
:020000040000fa
:04030c003c030000ae
:020000040000fa
:040310003c030000aa
:020000040000fa
:040314003c030000a6
:020000040000fa
:040318003c030000a2
:020000040000fa
:04031c003c0300009e
:020000040000fa
:040320003c0300009a
:020000040000fa
:040324003c03000096
:020000040000fa
:040328003c03000092
:020000040000fa
:04032c003c0300008e
:020000040000fa
:040330003c0300008a
:020000040000fa
:040334003c03000086
:020000040000fa
:040338003c03000082
:020000040000fa
:04033c003c0300007e
:020000040000fa
:040340003c0300007a
:020000040000fa
:040344003c03000076
:020000040000fa
:040348003c03000072
:020000040000fa
:04034c003c0300006e
:020000040000fa
:040350003c0300006a
:020000040000fa
:040354003c03000066
:020000040000fa
:040358003c03000062
:020000040000fa
:04035c003c0300005e
:020000040000fa
:040360003c0300005a
:020000040000fa
:040364003c03000056
:020000040000fa
:040368003c03000052
:020000040000fa
:04036c003c0300004e
:020000040000fa
:040370003c0300004a
:020000040000fa
:040374003c03000046
:020000040000fa
:040378003c03000042
:020000040000fa
:04037c003c0300003e
:020000040000fa
:040380003c0300003a
:020000040000fa
:040384003c03000036
:020000040000fa
:040388003c03000032
:020000040000fa
:04038c003c0300002e
:020000040000fa
:040390003c0300002a
:020000040000fa
:040394003c03000026
:020000040000fa
:040398003c03000022
:020000040000fa
:04039c003c0300001e
:020000040000fa
:0403a0003c0300001a
:020000040000fa
:0403a4003c03000016
:020000040000fa
:0403a8003c03000012
:020000040000fa
:0403ac003c0300000e
:020000040000fa
:0403b0003c0300000a
:020000040000fa
:0403b4003c03000006
:020000040000fa
:0403b8003c03000002
:020000040000fa
:0403bc003c030000fe
:020000040000fa
:0403c0003c030000fa
:020000040000fa
:0403c4003c030000f6
:020000040000fa
:0403c8003c030000f2
:020000040000fa
:0403cc003c030000ee
:020000040000fa
:0403d0003c030000ea
:020000040000fa
:0403d4003c030000e6
:020000040000fa
:0403d8003c030000e2
:020000040000fa
:0403dc003c030000de
:020000040000fa
:0403e0003c030000da
:020000040000fa
:0403e4003c030000d6
:020000040000fa
:0403e8003c030000d2
:020000040000fa
:0403ec003c030000ce
:020000040000fa
:0403f0003c030000ca
:020000040000fa
:0403f4003c030000c6
:020000040000fa
:0403f8003c030000c2
:020000040000fa
:0403fc003c030000be
:020000040000fa
:100400002f8020000e7f22000e01880000000000d7
:10041000000020000000e000020032000001200087
:100420002002880014000700950007000000e0008b
:1004300003003a00c05f20000100200002003700e6
:100440000000200001002000810f70000100320038
:1004500014000700000020000000e000020032004d
:1004600000000200000000009405020000000000ef
:100470000040da000000fe004440a90020002000f7
:100480000000e0000300320010002000900188000e
:100490004440a800000006008a1f78008b1f7800e7
:1004a00000000600a1028800800478000000eb0034
:1004b0001f003700e284440054a0b4009905ba003c
:1004c000e284440054a0b4009906ba00e2844400d7
:1004d00054a0b4000006eb00476fde00fd07b20039
:1004e000ae018800636ce10003003a00eaff0700f8
:1004f0000000eb000e003700606ce10008003a00dd
:10050000004deb000a05e800020039003420ec0041
:100510000af0a0008b05e900f9ff3e000400370057
:100520006168e100010032000086eb000b0007006b
:1005300019c7ba001905ba000e04e00003003a001a
:100540000a00e000dbff3a0000000600fe07b200f0
:10055000ae0288008a047800f5ff37000cd0a300b3
:10056000e20f4d001c00390089027800354dba00b9
:100570000a05e800020039003420ec000af0a0006f
:100580008b05e9000f003200254dba000a05e8008e
:10059000020039003420ec000af0a0008b05e900cd
:1005a000080032000c00e0000600320015cdba0051
:1005b0000a05e800020039003420ec000af0a0002f
:1005c0008b05e9008984e80054a0b4000b00e0002a
:1005d000e2ff3a00000006009902ba00055d7800cb
:1005e0008b05e900f7ff3200c82ade00055d7800c0
:1005f0008b05e900f3ff32000c00e000f1ff320050
:1006000019ddba00eeff3700809fbe003200f8000f
:100610003400f80010002000a00188001000200025
:10062000900188000000fa00200480004700de00ee
:10063000614060008080fb00200480004800de00f4
:10064000614060000080fb00010070000000e000dd
:10065000040032000621ef000a21ef0084e0a90027
:100660008500a9000080fa003400f9003200f9008a
:100670004f00be00004006000040da000000fe000f
:10068000000005000001be001f0007000470a70065
:1006900003f0a1006509b100160032000d0035001d
:1006a0006828e10006003500f0ff2f00f1ff270069
:1006b0000300e00013003b000100280000000500db
:1006c00000004000818048008502e900fcff3a00fc
:1006d00008003700f88f420002003c008000eb0069
:1006e000000005008100d1000080d3008502e800f1
:1006f000fcff3a000300e00002003b006000100035
:10070000e080180000000600c70ade00f107b20012
:10071000f50fb20008003200e1cf420002003200c3
:100720000170a00024000500810f7000010032005c
:100730000408050044000500810f700002003a0023
:10074000140005008502e9000000400081c0480057
:10075000fcff3b000170a00024000500889fbe0044
:100760008a9fbe008c1f7800560007005d00330092
:1007700003866c006450e100240032006420e10034
:10078000270032006150e100220032006120e100c8
:10079000210032008b854200eb07b1000134b80024
:1007a000003ab8000804420089844a00013ab800bf
:1007b0000030b8008880400009014a00040033007e
:1007c0000000400081804800020149008b05e900db
:1007d000c909dd0083017000010032001300200010
:1007e000c814de004814dd004709de001200b20024
:1007f000c808de00088470000c00070001f0a100aa
:100800000cf0a70001f0a0003f0037006120e100dc
:10081000410032000801be000200be00f7ff3700b1
:100820006150e100fcff3a003b00370081002000ee
:10083000618055000b003d000b00200061fe2f0081
:100840000100e1001d00340082817100610164003b
:100850008904d1000884d3000000e800faff3a00c0
:10086000710020006100640003007000020060005d
:100870000900320061044400e0844c000988a500ae
:10088000050032008b05e8006808e10002003a002c
:100890008904d1000884d300f20f20000258e1003f
:1008a00005003d00c75ddd00f907b20089807500d5
:1008b00008007800000006000bf827008b00780085
:1008c000000005000004be008fff07000003be000b
:1008d0000405be000200be008bff0700844f7500b8
:1008e000000006000200be006450e1000500360072
:1008f0006420e100020036000968a30001003a000c
:100900000800be000160a0004f0678004f05be0041
:100910004f04be0000000600f0ff2f00f1ff27008b
:04092000f9ff3700a4
:020000040000fa
:100924000000fa0006000700130007003e0007005d
:10093400430007000000eb000080fa0000000600fe
:100944000000fa0005e1a80005a1a8000421a900ff
:1009540021088000000320000100700020088800a6
:100964009460a9000080eb00100888000000eb00f0
:100974000080fa00000006000000fa00889fbe0014
:100984001061a80011a1a9001021a900810880000c
:1009940000032000010070008008880094e0a80093
:1009a4009500a80031058000f0ff280080806000d9
:1009b40000002300010070003005880000002000c2
:1009c40001f823002c000700e00f5000e08f5800ce
:1009d40004003d00f2ff2f0003002000000041004e
:1009e40081804900408cde00cf8cde000800be0010
:1009f40000007800700888000000200001f823003f
:100a04001d00070000007800600888000a21ef003c
:100a14000621ef0011e1a8000000eb004f04be0026
:100a24000080fa00000006000000fa00c9c2a90014
:100a3400e3c4a9000000eb000080fa0000000600f7
:100a44000000fa00f122a800ed24a80041a4a800a7
:100a54004164a90001228000c0ff2f0000806000d3
:100a64000010a0000022880041e4a8000000eb0070
:100a74000080fa00000006000800fa00889fbe000b
:100a840020079800310798006000b800008fbe006e
:100a94000240220043b724002e009000be009000c4
:100aa4002dff0700f6fe0700008fbe001e00be00eb
:100ab400e00f5000e08f580002003d00f00fb0003e
:100ac4000180b0004809dd004804de00080471001c
:100ad400c88cde00088fbe001e00be004f04be009e
:100ae4000080fa00000006000000fa007027ef0002
:100af4007227ef007427ef000080eb00b03b880002
:100b04000080eb00c03b88000080eb00d03b8800f5
:100b14000080eb00e03b88000000eb000080fa005e
:100b2400000006000000fa007dff0700001020000e
:100b340010228800d0cc2c00c1e42300ceff070093
:100b44000001be000000eb000a000700d0cc2c001e
:100b5400c1e42300c8ff07000001be00100020000c
:100b6400040007000621ef000a21ef000140fe0007
:100b7400f0ff37000a00fa002007980032079800b7
:100b8400430798006000b800008fbe002e0090005c
:100b94000000e00003003200e10f500003003200c7
:100ba40004003700cdc2a90003003700cdc2a8005d
:100bb40001003700cdc2a8000621ef000a21ef0092
:100bc40003003700300880008000eb00008fbe0077
:100bd4003e009000ce0090001e01be00800f510028
:100be400818f5900f7ff3500004080000080fa0033
:040bf40000000600f7
:020000040000fa
:100bf8000008000002000000800000000000000063
:020000040000fa
:020000040002f8
:04aff000eec30000ac
:020000040000fa
:020000040002f8
:04aff400ffff00005b
:020000040000fa
:020000040002f8
:04aff800bf7900001d
:020000040000fa
:020000040002f8
:04affc003f3f0000d3
:00000001FF
